{
  "contractName": "ProductMarketplace",
  "abi": [
    {
      "anonymous": false,
      "inputs": [
        {
          "indexed": false,
          "internalType": "uint256",
          "name": "id",
          "type": "uint256"
        },
        {
          "indexed": false,
          "internalType": "string",
          "name": "title",
          "type": "string"
        },
        {
          "indexed": false,
          "internalType": "string",
          "name": "description",
          "type": "string"
        },
        {
          "indexed": false,
          "internalType": "uint256",
          "name": "price",
          "type": "uint256"
        },
        {
          "indexed": false,
          "internalType": "address",
          "name": "seller",
          "type": "address"
        }
      ],
      "name": "ProductCreated",
      "type": "event"
    },
    {
      "anonymous": false,
      "inputs": [
        {
          "indexed": false,
          "internalType": "uint256",
          "name": "id",
          "type": "uint256"
        },
        {
          "indexed": false,
          "internalType": "address",
          "name": "buyer",
          "type": "address"
        },
        {
          "indexed": false,
          "internalType": "uint256",
          "name": "price",
          "type": "uint256"
        }
      ],
      "name": "ProductPurchased",
      "type": "event"
    },
    {
      "inputs": [
        {
          "internalType": "address",
          "name": "",
          "type": "address"
        },
        {
          "internalType": "uint256",
          "name": "",
          "type": "uint256"
        }
      ],
      "name": "ownedProducts",
      "outputs": [
        {
          "internalType": "uint256",
          "name": "",
          "type": "uint256"
        }
      ],
      "stateMutability": "view",
      "type": "function",
      "constant": true
    },
    {
      "inputs": [],
      "name": "productCount",
      "outputs": [
        {
          "internalType": "uint256",
          "name": "",
          "type": "uint256"
        }
      ],
      "stateMutability": "view",
      "type": "function",
      "constant": true
    },
    {
      "inputs": [
        {
          "internalType": "uint256",
          "name": "",
          "type": "uint256"
        }
      ],
      "name": "products",
      "outputs": [
        {
          "internalType": "uint256",
          "name": "id",
          "type": "uint256"
        },
        {
          "internalType": "string",
          "name": "title",
          "type": "string"
        },
        {
          "internalType": "string",
          "name": "description",
          "type": "string"
        },
        {
          "internalType": "uint256",
          "name": "price",
          "type": "uint256"
        },
        {
          "internalType": "address payable",
          "name": "seller",
          "type": "address"
        },
        {
          "internalType": "address",
          "name": "owner",
          "type": "address"
        },
        {
          "internalType": "bool",
          "name": "isSold",
          "type": "bool"
        }
      ],
      "stateMutability": "view",
      "type": "function",
      "constant": true
    },
    {
      "inputs": [
        {
          "internalType": "string",
          "name": "_title",
          "type": "string"
        },
        {
          "internalType": "string",
          "name": "_description",
          "type": "string"
        },
        {
          "internalType": "uint256",
          "name": "_price",
          "type": "uint256"
        }
      ],
      "name": "createProduct",
      "outputs": [],
      "stateMutability": "nonpayable",
      "type": "function"
    },
    {
      "inputs": [
        {
          "internalType": "uint256",
          "name": "_id",
          "type": "uint256"
        }
      ],
      "name": "purchaseProduct",
      "outputs": [],
      "stateMutability": "payable",
      "type": "function",
      "payable": true
    },
    {
      "inputs": [
        {
          "internalType": "address",
          "name": "_owner",
          "type": "address"
        }
      ],
      "name": "getOwnedProducts",
      "outputs": [
        {
          "internalType": "uint256[]",
          "name": "",
          "type": "uint256[]"
        }
      ],
      "stateMutability": "view",
      "type": "function",
      "constant": true
    },
    {
      "inputs": [
        {
          "internalType": "uint256",
          "name": "_id",
          "type": "uint256"
        }
      ],
      "name": "getProductDetails",
      "outputs": [
        {
          "internalType": "uint256",
          "name": "id",
          "type": "uint256"
        },
        {
          "internalType": "string",
          "name": "title",
          "type": "string"
        },
        {
          "internalType": "string",
          "name": "description",
          "type": "string"
        },
        {
          "internalType": "uint256",
          "name": "price",
          "type": "uint256"
        },
        {
          "internalType": "address",
          "name": "seller",
          "type": "address"
        },
        {
          "internalType": "address",
          "name": "owner",
          "type": "address"
        },
        {
          "internalType": "bool",
          "name": "isSold",
          "type": "bool"
        }
      ],
      "stateMutability": "view",
      "type": "function",
      "constant": true
    }
  ],
  "bytecode": "0x60806040526000805534801561001457600080fd5b506117eb806100246000396000f3fe6080604052600436106100705760003560e01c80637acc0b201161004e5780637acc0b2014610111578063a142220914610154578063d661743c1461017d578063e0f6ef87146101ba57610070565b80631a42c5821461007557806338e76a03146100b25780636813b53b146100ce575b600080fd5b34801561008157600080fd5b5061009c60048036038101906100979190610dda565b6101e5565b6040516100a99190610ecf565b60405180910390f35b6100cc60048036038101906100c79190610f1d565b61027c565b005b3480156100da57600080fd5b506100f560048036038101906100f09190610f1d565b61057e565b604051610108979695949392919061101c565b60405180910390f35b34801561011d57600080fd5b5061013860048036038101906101339190610f1d565b6107e7565b60405161014b97969594939291906110ba565b60405180910390f35b34801561016057600080fd5b5061017b6004803603810190610176919061126c565b610986565b005b34801561018957600080fd5b506101a4600480360381019061019f91906112f7565b610c8e565b6040516101b19190611337565b60405180910390f35b3480156101c657600080fd5b506101cf610cbf565b6040516101dc9190611337565b60405180910390f35b6060600260008373ffffffffffffffffffffffffffffffffffffffff1673ffffffffffffffffffffffffffffffffffffffff16815260200190815260200160002080548060200260200160405190810160405280929190818152602001828054801561027057602002820191906000526020600020905b81548152602001906001019080831161025c575b50505050509050919050565b60006001600083815260200190815260200160002090506000821180156102a557506000548211155b6102e4576040517f08c379a00000000000000000000000000000000000000000000000000000000081526004016102db9061139e565b60405180910390fd5b8060030154341461032a576040517f08c379a00000000000000000000000000000000000000000000000000000000081526004016103219061140a565b60405180910390fd5b8060050160149054906101000a900460ff161561037c576040517f08c379a000000000000000000000000000000000000000000000000000000000815260040161037390611476565b60405180910390fd5b8060040160009054906101000a900473ffffffffffffffffffffffffffffffffffffffff1673ffffffffffffffffffffffffffffffffffffffff163373ffffffffffffffffffffffffffffffffffffffff160361040e576040517f08c379a0000000000000000000000000000000000000000000000000000000008152600401610405906114e2565b60405180910390fd5b8060040160009054906101000a900473ffffffffffffffffffffffffffffffffffffffff1673ffffffffffffffffffffffffffffffffffffffff166108fc349081150290604051600060405180830381858888f19350505050158015610478573d6000803e3d6000fd5b50338160050160006101000a81548173ffffffffffffffffffffffffffffffffffffffff021916908373ffffffffffffffffffffffffffffffffffffffff16021790555060018160050160146101000a81548160ff021916908315150217905550600260003373ffffffffffffffffffffffffffffffffffffffff1673ffffffffffffffffffffffffffffffffffffffff1681526020019081526020016000208290806001815401808255809150506001900390600052602060002001600090919091909150557fa530f889d7f1bd9a73028e48944ca013ab2c6624a31e3fa26f923f4bb719abd582333460405161057293929190611502565b60405180910390a15050565b60006060806000806000806000600160008a81526020019081526020016000206040518060e0016040529081600082015481526020016001820180546105c390611568565b80601f01602080910402602001604051908101604052809291908181526020018280546105ef90611568565b801561063c5780601f106106115761010080835404028352916020019161063c565b820191906000526020600020905b81548152906001019060200180831161061f57829003601f168201915b5050505050815260200160028201805461065590611568565b80601f016020809104026020016040519081016040528092919081815260200182805461068190611568565b80156106ce5780601f106106a3576101008083540402835291602001916106ce565b820191906000526020600020905b8154815290600101906020018083116106b157829003601f168201915b50505050508152602001600382015481526020016004820160009054906101000a900473ffffffffffffffffffffffffffffffffffffffff1673ffffffffffffffffffffffffffffffffffffffff1673ffffffffffffffffffffffffffffffffffffffff1681526020016005820160009054906101000a900473ffffffffffffffffffffffffffffffffffffffff1673ffffffffffffffffffffffffffffffffffffffff1673ffffffffffffffffffffffffffffffffffffffff1681526020016005820160149054906101000a900460ff1615151515815250509050806000015181602001518260400151836060015184608001518560a001518660c00151975097509750975097509750975050919395979092949650565b600160205280600052604060002060009150905080600001549080600101805461081090611568565b80601f016020809104026020016040519081016040528092919081815260200182805461083c90611568565b80156108895780601f1061085e57610100808354040283529160200191610889565b820191906000526020600020905b81548152906001019060200180831161086c57829003601f168201915b50505050509080600201805461089e90611568565b80601f01602080910402602001604051908101604052809291908181526020018280546108ca90611568565b80156109175780601f106108ec57610100808354040283529160200191610917565b820191906000526020600020905b8154815290600101906020018083116108fa57829003601f168201915b5050505050908060030154908060040160009054906101000a900473ffffffffffffffffffffffffffffffffffffffff16908060050160009054906101000a900473ffffffffffffffffffffffffffffffffffffffff16908060050160149054906101000a900460ff16905087565b60008351116109ca576040517f08c379a00000000000000000000000000000000000000000000000000000000081526004016109c1906115e5565b60405180910390fd5b6000825111610a0e576040517f08c379a0000000000000000000000000000000000000000000000000000000008152600401610a0590611651565b60405180910390fd5b60008111610a51576040517f08c379a0000000000000000000000000000000000000000000000000000000008152600401610a48906116bd565b60405180910390fd5b600080815480929190610a639061170c565b91905055506040518060e0016040528060005481526020018481526020018381526020018281526020013373ffffffffffffffffffffffffffffffffffffffff168152602001600073ffffffffffffffffffffffffffffffffffffffff168152602001600015158152506001600080548152602001908152602001600020600082015181600001556020820151816001019080519060200190610b07929190610cc5565b506040820151816002019080519060200190610b24929190610cc5565b506060820151816003015560808201518160040160006101000a81548173ffffffffffffffffffffffffffffffffffffffff021916908373ffffffffffffffffffffffffffffffffffffffff16021790555060a08201518160050160006101000a81548173ffffffffffffffffffffffffffffffffffffffff021916908373ffffffffffffffffffffffffffffffffffffffff16021790555060c08201518160050160146101000a81548160ff021916908315150217905550905050600260003373ffffffffffffffffffffffffffffffffffffffff1673ffffffffffffffffffffffffffffffffffffffff16815260200190815260200160002060005490806001815401808255809150506001900390600052602060002001600090919091909150557f965ec429b52d166e7f39d678643fac1a6aba80af304381b7ec3f6326d5ebea5a60005484848433604051610c81959493929190611754565b60405180910390a1505050565b60026020528160005260406000208181548110610caa57600080fd5b90600052602060002001600091509150505481565b60005481565b828054610cd190611568565b90600052602060002090601f016020900481019282610cf35760008555610d3a565b82601f10610d0c57805160ff1916838001178555610d3a565b82800160010185558215610d3a579182015b82811115610d39578251825591602001919060010190610d1e565b5b509050610d479190610d4b565b5090565b5b80821115610d64576000816000905550600101610d4c565b5090565b6000604051905090565b600080fd5b600080fd5b600073ffffffffffffffffffffffffffffffffffffffff82169050919050565b6000610da782610d7c565b9050919050565b610db781610d9c565b8114610dc257600080fd5b50565b600081359050610dd481610dae565b92915050565b600060208284031215610df057610def610d72565b5b6000610dfe84828501610dc5565b91505092915050565b600081519050919050565b600082825260208201905092915050565b6000819050602082019050919050565b6000819050919050565b610e4681610e33565b82525050565b6000610e588383610e3d565b60208301905092915050565b6000602082019050919050565b6000610e7c82610e07565b610e868185610e12565b9350610e9183610e23565b8060005b83811015610ec2578151610ea98882610e4c565b9750610eb483610e64565b925050600181019050610e95565b5085935050505092915050565b60006020820190508181036000830152610ee98184610e71565b905092915050565b610efa81610e33565b8114610f0557600080fd5b50565b600081359050610f1781610ef1565b92915050565b600060208284031215610f3357610f32610d72565b5b6000610f4184828501610f08565b91505092915050565b610f5381610e33565b82525050565b600081519050919050565b600082825260208201905092915050565b60005b83811015610f93578082015181840152602081019050610f78565b83811115610fa2576000848401525b50505050565b6000601f19601f8301169050919050565b6000610fc482610f59565b610fce8185610f64565b9350610fde818560208601610f75565b610fe781610fa8565b840191505092915050565b610ffb81610d9c565b82525050565b60008115159050919050565b61101681611001565b82525050565b600060e082019050611031600083018a610f4a565b81810360208301526110438189610fb9565b905081810360408301526110578188610fb9565b90506110666060830187610f4a565b6110736080830186610ff2565b61108060a0830185610ff2565b61108d60c083018461100d565b98975050505050505050565b60006110a482610d7c565b9050919050565b6110b481611099565b82525050565b600060e0820190506110cf600083018a610f4a565b81810360208301526110e18189610fb9565b905081810360408301526110f58188610fb9565b90506111046060830187610f4a565b61111160808301866110ab565b61111e60a0830185610ff2565b61112b60c083018461100d565b98975050505050505050565b600080fd5b600080fd5b7f4e487b7100000000000000000000000000000000000000000000000000000000600052604160045260246000fd5b61117982610fa8565b810181811067ffffffffffffffff8211171561119857611197611141565b5b80604052505050565b60006111ab610d68565b90506111b78282611170565b919050565b600067ffffffffffffffff8211156111d7576111d6611141565b5b6111e082610fa8565b9050602081019050919050565b82818337600083830152505050565b600061120f61120a846111bc565b6111a1565b90508281526020810184848401111561122b5761122a61113c565b5b6112368482856111ed565b509392505050565b600082601f83011261125357611252611137565b5b81356112638482602086016111fc565b91505092915050565b60008060006060848603121561128557611284610d72565b5b600084013567ffffffffffffffff8111156112a3576112a2610d77565b5b6112af8682870161123e565b935050602084013567ffffffffffffffff8111156112d0576112cf610d77565b5b6112dc8682870161123e565b92505060406112ed86828701610f08565b9150509250925092565b6000806040838503121561130e5761130d610d72565b5b600061131c85828601610dc5565b925050602061132d85828601610f08565b9150509250929050565b600060208201905061134c6000830184610f4a565b92915050565b7f50726f6475637420646f6573206e6f7420657869737400000000000000000000600082015250565b6000611388601683610f64565b915061139382611352565b602082019050919050565b600060208201905081810360008301526113b78161137b565b9050919050565b7f496e636f72726563742070726963650000000000000000000000000000000000600082015250565b60006113f4600f83610f64565b91506113ff826113be565b602082019050919050565b60006020820190508181036000830152611423816113e7565b9050919050565b7f50726f6475637420616c726561647920736f6c64000000000000000000000000600082015250565b6000611460601483610f64565b915061146b8261142a565b602082019050919050565b6000602082019050818103600083015261148f81611453565b9050919050565b7f53656c6c65722063616e6e6f7420627579206f776e2070726f64756374000000600082015250565b60006114cc601d83610f64565b91506114d782611496565b602082019050919050565b600060208201905081810360008301526114fb816114bf565b9050919050565b60006060820190506115176000830186610f4a565b6115246020830185610ff2565b6115316040830184610f4a565b949350505050565b7f4e487b7100000000000000000000000000000000000000000000000000000000600052602260045260246000fd5b6000600282049050600182168061158057607f821691505b60208210810361159357611592611539565b5b50919050565b7f5469746c652063616e6e6f7420626520656d7074790000000000000000000000600082015250565b60006115cf601583610f64565b91506115da82611599565b602082019050919050565b600060208201905081810360008301526115fe816115c2565b9050919050565b7f4465736372697074696f6e2063616e6e6f7420626520656d7074790000000000600082015250565b600061163b601b83610f64565b915061164682611605565b602082019050919050565b6000602082019050818103600083015261166a8161162e565b9050919050565b7f5072696365206d7573742062652067726561746572207468616e207a65726f00600082015250565b60006116a7601f83610f64565b91506116b282611671565b602082019050919050565b600060208201905081810360008301526116d68161169a565b9050919050565b7f4e487b7100000000000000000000000000000000000000000000000000000000600052601160045260246000fd5b600061171782610e33565b91507fffffffffffffffffffffffffffffffffffffffffffffffffffffffffffffffff8203611749576117486116dd565b5b600182019050919050565b600060a0820190506117696000830188610f4a565b818103602083015261177b8187610fb9565b9050818103604083015261178f8186610fb9565b905061179e6060830185610f4a565b6117ab6080830184610ff2565b969550505050505056fea26469706673582212204fca7109e8e1135ca357a72710c1aff4ef446befd1f85f73766512cfa3028f8064736f6c634300080d0033",
  "immutableReferences": {},
  "source": "// SPDX-License-Identifier: MIT\r\npragma solidity ^0.8.0;\r\n\r\ncontract ProductMarketplace {\r\n    struct Product {\r\n        uint id;\r\n        string title;\r\n        string description;\r\n        uint price;\r\n        address payable seller;\r\n        address owner;\r\n        bool isSold;\r\n    }\r\n\r\n    uint public productCount = 0;\r\n    mapping(uint => Product) public products;\r\n    mapping(address => uint[]) public ownedProducts;\r\n\r\n    event ProductCreated(\r\n        uint id,\r\n        string title,\r\n        string description,\r\n        uint price,\r\n        address seller\r\n    );\r\n\r\n    event ProductPurchased(\r\n        uint id,\r\n        address buyer,\r\n        uint price\r\n    );\r\n\r\n    // Create a product for sale\r\n    function createProduct(\r\n        string memory _title,\r\n        string memory _description,\r\n        uint _price\r\n    ) public {\r\n        require(bytes(_title).length > 0, \"Title cannot be empty\");\r\n        require(bytes(_description).length > 0, \"Description cannot be empty\");\r\n        require(_price > 0, \"Price must be greater than zero\");\r\n\r\n        productCount++;\r\n        products[productCount] = Product(\r\n            productCount,\r\n            _title,\r\n            _description,\r\n            _price,\r\n            payable(msg.sender),\r\n            address(0), // Owner initially is zero address\r\n            false\r\n        );\r\n\r\n        ownedProducts[msg.sender].push(productCount); // Track seller's product\r\n\r\n        emit ProductCreated(productCount, _title, _description, _price, msg.sender);\r\n    }\r\n\r\n    // Purchase a product\r\n    function purchaseProduct(uint _id) public payable {\r\n        Product storage product = products[_id];\r\n        require(_id > 0 && _id <= productCount, \"Product does not exist\");\r\n        require(msg.value == product.price, \"Incorrect price\");\r\n        require(!product.isSold, \"Product already sold\");\r\n        require(msg.sender != product.seller, \"Seller cannot buy own product\");\r\n\r\n        // Transfer funds to seller\r\n        product.seller.transfer(msg.value);\r\n        \r\n        // Update product ownership and status\r\n        product.owner = msg.sender;\r\n        product.isSold = true;\r\n\r\n        ownedProducts[msg.sender].push(_id); // Track buyer's owned product\r\n\r\n        emit ProductPurchased(_id, msg.sender, msg.value);\r\n    }\r\n\r\n    // Get all owned products by an address\r\n    function getOwnedProducts(address _owner) public view returns (uint[] memory) {\r\n        return ownedProducts[_owner];\r\n    }\r\n\r\n    // Fetch product details by id\r\n    function getProductDetails(uint _id) public view returns (\r\n        uint id,\r\n        string memory title,\r\n        string memory description,\r\n        uint price,\r\n        address seller,\r\n        address owner,\r\n        bool isSold\r\n    ) {\r\n        Product memory product = products[_id];\r\n        return (product.id, product.title, product.description, product.price, product.seller, product.owner, product.isSold);\r\n    }\r\n}\r\n",
  "sourcePath": "C:\\Test\\marketplace-dapps\\contracts\\ProductMarketplace.sol",
  "compiler": {
    "name": "solc",
    "version": "0.8.13+commit.abaa5c0e.Emscripten.clang"
  },
  "schemaVersion": "3.4.16",
  "updatedAt": "2025-05-14T13:38:25.763Z",
  "networkType": "ethereum",
  "devdoc": {
    "kind": "dev",
    "methods": {},
    "version": 1
  },
  "userdoc": {
    "kind": "user",
    "methods": {},
    "version": 1
  }
}